{
  "contractName": "ERC6150Token",
  "abi": [
    {
      "inputs": [
        {
          "internalType": "string",
          "name": "name",
          "type": "string"
        },
        {
          "internalType": "string",
          "name": "symbol",
          "type": "string"
        }
      ],
      "stateMutability": "nonpayable",
      "type": "constructor"
    },
    {
      "inputs": [
        {
          "internalType": "address",
          "name": "sender",
          "type": "address"
        },
        {
          "internalType": "uint256",
          "name": "tokenId",
          "type": "uint256"
        },
        {
          "internalType": "address",
          "name": "owner",
          "type": "address"
        }
      ],
      "name": "ERC721IncorrectOwner",
      "type": "error"
    },
    {
      "inputs": [
        {
          "internalType": "address",
          "name": "operator",
          "type": "address"
        },
        {
          "internalType": "uint256",
          "name": "tokenId",
          "type": "uint256"
        }
      ],
      "name": "ERC721InsufficientApproval",
      "type": "error"
    },
    {
      "inputs": [
        {
          "internalType": "address",
          "name": "approver",
          "type": "address"
        }
      ],
      "name": "ERC721InvalidApprover",
      "type": "error"
    },
    {
      "inputs": [
        {
          "internalType": "address",
          "name": "operator",
          "type": "address"
        }
      ],
      "name": "ERC721InvalidOperator",
      "type": "error"
    },
    {
      "inputs": [
        {
          "internalType": "address",
          "name": "owner",
          "type": "address"
        }
      ],
      "name": "ERC721InvalidOwner",
      "type": "error"
    },
    {
      "inputs": [
        {
          "internalType": "address",
          "name": "receiver",
          "type": "address"
        }
      ],
      "name": "ERC721InvalidReceiver",
      "type": "error"
    },
    {
      "inputs": [
        {
          "internalType": "address",
          "name": "sender",
          "type": "address"
        }
      ],
      "name": "ERC721InvalidSender",
      "type": "error"
    },
    {
      "inputs": [
        {
          "internalType": "uint256",
          "name": "tokenId",
          "type": "uint256"
        }
      ],
      "name": "ERC721NonexistentToken",
      "type": "error"
    },
    {
      "anonymous": false,
      "inputs": [
        {
          "indexed": true,
          "internalType": "address",
          "name": "owner",
          "type": "address"
        },
        {
          "indexed": true,
          "internalType": "address",
          "name": "approved",
          "type": "address"
        },
        {
          "indexed": true,
          "internalType": "uint256",
          "name": "tokenId",
          "type": "uint256"
        }
      ],
      "name": "Approval",
      "type": "event"
    },
    {
      "anonymous": false,
      "inputs": [
        {
          "indexed": true,
          "internalType": "address",
          "name": "owner",
          "type": "address"
        },
        {
          "indexed": true,
          "internalType": "address",
          "name": "operator",
          "type": "address"
        },
        {
          "indexed": false,
          "internalType": "bool",
          "name": "approved",
          "type": "bool"
        }
      ],
      "name": "ApprovalForAll",
      "type": "event"
    },
    {
      "anonymous": false,
      "inputs": [
        {
          "indexed": true,
          "internalType": "address",
          "name": "minter",
          "type": "address"
        },
        {
          "indexed": true,
          "internalType": "address",
          "name": "to",
          "type": "address"
        },
        {
          "indexed": false,
          "internalType": "uint256",
          "name": "parentId",
          "type": "uint256"
        },
        {
          "indexed": false,
          "internalType": "uint256",
          "name": "tokenId",
          "type": "uint256"
        }
      ],
      "name": "Minted",
      "type": "event"
    },
    {
      "anonymous": false,
      "inputs": [
        {
          "indexed": true,
          "internalType": "address",
          "name": "from",
          "type": "address"
        },
        {
          "indexed": true,
          "internalType": "address",
          "name": "to",
          "type": "address"
        },
        {
          "indexed": true,
          "internalType": "uint256",
          "name": "tokenId",
          "type": "uint256"
        }
      ],
      "name": "Transfer",
      "type": "event"
    },
    {
      "inputs": [
        {
          "internalType": "address",
          "name": "to",
          "type": "address"
        },
        {
          "internalType": "uint256",
          "name": "tokenId",
          "type": "uint256"
        }
      ],
      "name": "approve",
      "outputs": [],
      "stateMutability": "nonpayable",
      "type": "function"
    },
    {
      "inputs": [
        {
          "internalType": "address",
          "name": "owner",
          "type": "address"
        }
      ],
      "name": "balanceOf",
      "outputs": [
        {
          "internalType": "uint256",
          "name": "",
          "type": "uint256"
        }
      ],
      "stateMutability": "view",
      "type": "function",
      "constant": true
    },
    {
      "inputs": [
        {
          "internalType": "uint256",
          "name": "tokenId",
          "type": "uint256"
        }
      ],
      "name": "childrenOf",
      "outputs": [
        {
          "internalType": "uint256[]",
          "name": "childrenIds",
          "type": "uint256[]"
        }
      ],
      "stateMutability": "view",
      "type": "function",
      "constant": true
    },
    {
      "inputs": [
        {
          "internalType": "uint256",
          "name": "tokenId",
          "type": "uint256"
        }
      ],
      "name": "getApproved",
      "outputs": [
        {
          "internalType": "address",
          "name": "",
          "type": "address"
        }
      ],
      "stateMutability": "view",
      "type": "function",
      "constant": true
    },
    {
      "inputs": [
        {
          "internalType": "address",
          "name": "owner",
          "type": "address"
        },
        {
          "internalType": "address",
          "name": "operator",
          "type": "address"
        }
      ],
      "name": "isApprovedForAll",
      "outputs": [
        {
          "internalType": "bool",
          "name": "",
          "type": "bool"
        }
      ],
      "stateMutability": "view",
      "type": "function",
      "constant": true
    },
    {
      "inputs": [
        {
          "internalType": "uint256",
          "name": "tokenId",
          "type": "uint256"
        }
      ],
      "name": "isLeaf",
      "outputs": [
        {
          "internalType": "bool",
          "name": "leaf",
          "type": "bool"
        }
      ],
      "stateMutability": "view",
      "type": "function",
      "constant": true
    },
    {
      "inputs": [
        {
          "internalType": "uint256",
          "name": "tokenId",
          "type": "uint256"
        }
      ],
      "name": "isRoot",
      "outputs": [
        {
          "internalType": "bool",
          "name": "root",
          "type": "bool"
        }
      ],
      "stateMutability": "view",
      "type": "function",
      "constant": true
    },
    {
      "inputs": [],
      "name": "name",
      "outputs": [
        {
          "internalType": "string",
          "name": "",
          "type": "string"
        }
      ],
      "stateMutability": "view",
      "type": "function",
      "constant": true
    },
    {
      "inputs": [
        {
          "internalType": "uint256",
          "name": "tokenId",
          "type": "uint256"
        }
      ],
      "name": "ownerOf",
      "outputs": [
        {
          "internalType": "address",
          "name": "",
          "type": "address"
        }
      ],
      "stateMutability": "view",
      "type": "function",
      "constant": true
    },
    {
      "inputs": [
        {
          "internalType": "uint256",
          "name": "tokenId",
          "type": "uint256"
        }
      ],
      "name": "parentOf",
      "outputs": [
        {
          "internalType": "uint256",
          "name": "parentId",
          "type": "uint256"
        }
      ],
      "stateMutability": "view",
      "type": "function",
      "constant": true
    },
    {
      "inputs": [
        {
          "internalType": "address",
          "name": "from",
          "type": "address"
        },
        {
          "internalType": "address",
          "name": "to",
          "type": "address"
        },
        {
          "internalType": "uint256",
          "name": "tokenId",
          "type": "uint256"
        }
      ],
      "name": "safeTransferFrom",
      "outputs": [],
      "stateMutability": "nonpayable",
      "type": "function"
    },
    {
      "inputs": [
        {
          "internalType": "address",
          "name": "from",
          "type": "address"
        },
        {
          "internalType": "address",
          "name": "to",
          "type": "address"
        },
        {
          "internalType": "uint256",
          "name": "tokenId",
          "type": "uint256"
        },
        {
          "internalType": "bytes",
          "name": "data",
          "type": "bytes"
        }
      ],
      "name": "safeTransferFrom",
      "outputs": [],
      "stateMutability": "nonpayable",
      "type": "function"
    },
    {
      "inputs": [
        {
          "internalType": "address",
          "name": "operator",
          "type": "address"
        },
        {
          "internalType": "bool",
          "name": "approved",
          "type": "bool"
        }
      ],
      "name": "setApprovalForAll",
      "outputs": [],
      "stateMutability": "nonpayable",
      "type": "function"
    },
    {
      "inputs": [
        {
          "internalType": "bytes4",
          "name": "interfaceId",
          "type": "bytes4"
        }
      ],
      "name": "supportsInterface",
      "outputs": [
        {
          "internalType": "bool",
          "name": "",
          "type": "bool"
        }
      ],
      "stateMutability": "view",
      "type": "function",
      "constant": true
    },
    {
      "inputs": [],
      "name": "symbol",
      "outputs": [
        {
          "internalType": "string",
          "name": "",
          "type": "string"
        }
      ],
      "stateMutability": "view",
      "type": "function",
      "constant": true
    },
    {
      "inputs": [
        {
          "internalType": "uint256",
          "name": "tokenId",
          "type": "uint256"
        }
      ],
      "name": "tokenURI",
      "outputs": [
        {
          "internalType": "string",
          "name": "",
          "type": "string"
        }
      ],
      "stateMutability": "view",
      "type": "function",
      "constant": true
    },
    {
      "inputs": [
        {
          "internalType": "address",
          "name": "from",
          "type": "address"
        },
        {
          "internalType": "address",
          "name": "to",
          "type": "address"
        },
        {
          "internalType": "uint256",
          "name": "tokenId",
          "type": "uint256"
        }
      ],
      "name": "transferFrom",
      "outputs": [],
      "stateMutability": "nonpayable",
      "type": "function"
    },
    {
      "inputs": [
        {
          "internalType": "address",
          "name": "to",
          "type": "address"
        },
        {
          "internalType": "uint256",
          "name": "parentId",
          "type": "uint256"
        }
      ],
      "name": "safeMintHierarchical",
      "outputs": [],
      "stateMutability": "nonpayable",
      "type": "function"
    },
    {
      "inputs": [
        {
          "internalType": "address",
          "name": "to",
          "type": "address"
        },
        {
          "internalType": "uint256",
          "name": "parentId",
          "type": "uint256"
        },
        {
          "internalType": "uint256",
          "name": "numberOfTokens",
          "type": "uint256"
        }
      ],
      "name": "safeBatchMintHierarchical",
      "outputs": [],
      "stateMutability": "nonpayable",
      "type": "function"
    },
    {
      "inputs": [
        {
          "internalType": "uint256",
          "name": "tokenId",
          "type": "uint256"
        }
      ],
      "name": "safeBurn",
      "outputs": [],
      "stateMutability": "nonpayable",
      "type": "function"
    },
    {
      "inputs": [
        {
          "internalType": "uint256[]",
          "name": "tokenIds",
          "type": "uint256[]"
        }
      ],
      "name": "safeBatchBurn",
      "outputs": [],
      "stateMutability": "nonpayable",
      "type": "function"
    },
    {
      "inputs": [
        {
          "internalType": "address",
          "name": "owner",
          "type": "address"
        }
      ],
      "name": "tokensOfOwner",
      "outputs": [
        {
          "internalType": "uint256[]",
          "name": "",
          "type": "uint256[]"
        }
      ],
      "stateMutability": "view",
      "type": "function",
      "constant": true
    }
  ],
  "bytecode": "0x608060405234801562000010575f80fd5b50604051620033f8380380620033f88339818101604052810190620000369190620001f6565b81818181815f90816200004a9190620004b0565b5080600190816200005c9190620004b0565b50505050506001600981905550505062000594565b5f604051905090565b5f80fd5b5f80fd5b5f80fd5b5f80fd5b5f601f19601f8301169050919050565b7f4e487b71000000000000000000000000000000000000000000000000000000005f52604160045260245ffd5b620000d2826200008a565b810181811067ffffffffffffffff82111715620000f457620000f36200009a565b5b80604052505050565b5f6200010862000071565b9050620001168282620000c7565b919050565b5f67ffffffffffffffff8211156200013857620001376200009a565b5b62000143826200008a565b9050602081019050919050565b5f5b838110156200016f57808201518184015260208101905062000152565b5f8484015250505050565b5f620001906200018a846200011b565b620000fd565b905082815260208101848484011115620001af57620001ae62000086565b5b620001bc84828562000150565b509392505050565b5f82601f830112620001db57620001da62000082565b5b8151620001ed8482602086016200017a565b91505092915050565b5f80604083850312156200020f576200020e6200007a565b5b5f83015167ffffffffffffffff8111156200022f576200022e6200007e565b5b6200023d85828601620001c4565b925050602083015167ffffffffffffffff8111156200026157620002606200007e565b5b6200026f85828601620001c4565b9150509250929050565b5f81519050919050565b7f4e487b71000000000000000000000000000000000000000000000000000000005f52602260045260245ffd5b5f6002820490506001821680620002c857607f821691505b602082108103620002de57620002dd62000283565b5b50919050565b5f819050815f5260205f209050919050565b5f6020601f8301049050919050565b5f82821b905092915050565b5f60088302620003427fffffffffffffffffffffffffffffffffffffffffffffffffffffffffffffffff8262000305565b6200034e868362000305565b95508019841693508086168417925050509392505050565b5f819050919050565b5f819050919050565b5f62000398620003926200038c8462000366565b6200036f565b62000366565b9050919050565b5f819050919050565b620003b38362000378565b620003cb620003c2826200039f565b84845462000311565b825550505050565b5f90565b620003e1620003d3565b620003ee818484620003a8565b505050565b5b818110156200041557620004095f82620003d7565b600181019050620003f4565b5050565b601f82111562000464576200042e81620002e4565b6200043984620002f6565b8101602085101562000449578190505b620004616200045885620002f6565b830182620003f3565b50505b505050565b5f82821c905092915050565b5f620004865f198460080262000469565b1980831691505092915050565b5f620004a0838362000475565b9150826002028217905092915050565b620004bb8262000279565b67ffffffffffffffff811115620004d757620004d66200009a565b5b620004e38254620002b0565b620004f082828562000419565b5f60209050601f83116001811462000526575f841562000511578287015190505b6200051d858262000493565b8655506200058c565b601f1984166200053686620002e4565b5f5b828110156200055f5784890151825560018201915060208501945060208101905062000538565b868310156200057f57848901516200057b601f89168262000475565b8355505b6001600288020188555050505b505050505050565b612e5680620005a25f395ff3fe608060405234801561000f575f80fd5b5060043610610140575f3560e01c80638462151c116100b6578063c87b56dd1161007a578063c87b56dd14610380578063cce3c13b146103b0578063cfa3c132146103e0578063dbf5132514610410578063e527b9661461042c578063e985e9c51461045c57610140565b80638462151c146102de5780639135b9631461030e57806395d89b411461032a578063a22cb46514610348578063b88d4fde1461036457610140565b806323b872dd1161010857806323b872dd146101fa5780633f5940fc1461021657806342842e0e146102325780636352211e1461024e5780636f19951c1461027e57806370a08231146102ae57610140565b806301ffc9a71461014457806306fdde0314610174578063081812fc14610192578063095ea7b3146101c25780631dd5f0d0146101de575b5f80fd5b61015e6004803603810190610159919061222f565b61048c565b60405161016b9190612274565b60405180910390f35b61017c61056d565b6040516101899190612317565b60405180910390f35b6101ac60048036038101906101a7919061236a565b6105fc565b6040516101b991906123d4565b60405180910390f35b6101dc60048036038101906101d79190612417565b610617565b005b6101f860048036038101906101f39190612455565b61062d565b005b610214600480360381019061020f91906124a5565b610744565b005b610230600480360381019061022b9190612417565b610843565b005b61024c600480360381019061024791906124a5565b6108d1565b005b6102686004803603810190610263919061236a565b6108f0565b60405161027591906123d4565b60405180910390f35b6102986004803603810190610293919061236a565b610901565b6040516102a591906125ac565b60405180910390f35b6102c860048036038101906102c391906125cc565b610972565b6040516102d59190612606565b60405180910390f35b6102f860048036038101906102f391906125cc565b610a28565b60405161030591906125ac565b60405180910390f35b6103286004803603810190610323919061275f565b610abb565b005b610332610b0a565b60405161033f9190612317565b60405180910390f35b610362600480360381019061035d91906127d0565b610b9a565b005b61037e600480360381019061037991906128be565b610bb0565b005b61039a6004803603810190610395919061236a565b610bd5565b6040516103a79190612317565b60405180910390f35b6103ca60048036038101906103c5919061236a565b610c3b565b6040516103d79190612274565b60405180910390f35b6103fa60048036038101906103f5919061236a565b610c73565b6040516104079190612606565b60405180910390f35b61042a6004803603810190610425919061236a565b610c97565b005b6104466004803603810190610441919061236a565b610cad565b6040516104539190612274565b60405180910390f35b6104766004803603810190610471919061293e565b610ce2565b6040516104839190612274565b60405180910390f35b5f7f80ac58cd000000000000000000000000000000000000000000000000000000007bffffffffffffffffffffffffffffffffffffffffffffffffffffffff1916827bffffffffffffffffffffffffffffffffffffffffffffffffffffffff1916148061055657507f5b5e139f000000000000000000000000000000000000000000000000000000007bffffffffffffffffffffffffffffffffffffffffffffffffffffffff1916827bffffffffffffffffffffffffffffffffffffffffffffffffffffffff1916145b80610566575061056582610d70565b5b9050919050565b60605f805461057b906129a9565b80601f01602080910402602001604051908101604052809291908181526020018280546105a7906129a9565b80156105f25780601f106105c9576101008083540402835291602001916105f2565b820191905f5260205f20905b8154815290600101906020018083116105d557829003601f168201915b5050505050905090565b5f61060682610dd9565b5061061082610e5f565b9050919050565b6106298282610624610e98565b610e9f565b5050565b5f8167ffffffffffffffff81111561064857610647612623565b5b6040519080825280602002602001820160405280156106765781602001602082028036833780820191505090505b5090505f5b8281101561073257600954828281518110610699576106986129d9565b5b602002602001018181525050600a5f8673ffffffffffffffffffffffffffffffffffffffff1673ffffffffffffffffffffffffffffffffffffffff1681526020019081526020015f20600954908060018154018082558091505060019003905f5260205f20015f909190919091505560095f81548092919061071a90612a33565b9190505550808061072a90612a33565b91505061067b565b5061073e848483610eb1565b50505050565b5f73ffffffffffffffffffffffffffffffffffffffff168273ffffffffffffffffffffffffffffffffffffffff16036107b4575f6040517f64a0ae920000000000000000000000000000000000000000000000000000000081526004016107ab91906123d4565b60405180910390fd5b5f6107c783836107c2610e98565b610f10565b90508373ffffffffffffffffffffffffffffffffffffffff168173ffffffffffffffffffffffffffffffffffffffff161461083d578382826040517f64283d7b00000000000000000000000000000000000000000000000000000000815260040161083493929190612a7a565b60405180910390fd5b50505050565b5f600954905061085483838361111b565b600a5f8473ffffffffffffffffffffffffffffffffffffffff1673ffffffffffffffffffffffffffffffffffffffff1681526020019081526020015f2081908060018154018082558091505060019003905f5260205f20015f909190919091505560095f8154809291906108c790612a33565b9190505550505050565b6108eb83838360405180602001604052805f815250610bb0565b505050565b5f6108fa82610dd9565b9050919050565b606061090c82610dd9565b5060075f8381526020019081526020015f2080548060200260200160405190810160405280929190818152602001828054801561096657602002820191905f5260205f20905b815481526020019060010190808311610952575b50505050509050919050565b5f8073ffffffffffffffffffffffffffffffffffffffff168273ffffffffffffffffffffffffffffffffffffffff16036109e3575f6040517f89c62b640000000000000000000000000000000000000000000000000000000081526004016109da91906123d4565b60405180910390fd5b60035f8373ffffffffffffffffffffffffffffffffffffffff1673ffffffffffffffffffffffffffffffffffffffff1681526020019081526020015f20549050919050565b6060600a5f8373ffffffffffffffffffffffffffffffffffffffff1673ffffffffffffffffffffffffffffffffffffffff1681526020019081526020015f20805480602002602001604051908101604052809291908181526020018280548015610aaf57602002820191905f5260205f20905b815481526020019060010190808311610a9b575b50505050509050919050565b610ac48161113a565b5f5b8151811015610b0657610af333838381518110610ae657610ae56129d9565b5b602002602001015161117f565b8080610afe90612a33565b915050610ac6565b5050565b606060018054610b19906129a9565b80601f0160208091040260200160405190810160405280929190818152602001828054610b45906129a9565b8015610b905780601f10610b6757610100808354040283529160200191610b90565b820191905f5260205f20905b815481529060010190602001808311610b7357829003601f168201915b5050505050905090565b610bac610ba5610e98565b83836113b5565b5050565b610bbb848484610744565b610bcf610bc6610e98565b8585858561151e565b50505050565b6060610be082610dd9565b505f610bea6116ca565b90505f815111610c085760405180602001604052805f815250610c33565b80610c12846116e0565b604051602001610c23929190612ae9565b6040516020818303038152906040525b915050919050565b5f610c4582610dd9565b505f60075f8481526020019081526020015f208054905003610c6a5760019050610c6e565b5f90505b919050565b5f610c7d82610dd9565b5060065f8381526020019081526020015f20549050919050565b610ca0816117aa565b610caa338261117f565b50565b5f610cb782610dd9565b505f60065f8481526020019081526020015f205403610cd95760019050610cdd565b5f90505b919050565b5f60055f8473ffffffffffffffffffffffffffffffffffffffff1673ffffffffffffffffffffffffffffffffffffffff1681526020019081526020015f205f8373ffffffffffffffffffffffffffffffffffffffff1673ffffffffffffffffffffffffffffffffffffffff1681526020019081526020015f205f9054906101000a900460ff16905092915050565b5f7f01ffc9a7000000000000000000000000000000000000000000000000000000007bffffffffffffffffffffffffffffffffffffffffffffffffffffffff1916827bffffffffffffffffffffffffffffffffffffffffffffffffffffffff1916149050919050565b5f80610de483611945565b90505f73ffffffffffffffffffffffffffffffffffffffff168173ffffffffffffffffffffffffffffffffffffffff1603610e5657826040517f7e273289000000000000000000000000000000000000000000000000000000008152600401610e4d9190612606565b60405180910390fd5b80915050919050565b5f60045f8381526020019081526020015f205f9054906101000a900473ffffffffffffffffffffffffffffffffffffffff169050919050565b5f33905090565b610eac838383600161197e565b505050565b610f0b838383845167ffffffffffffffff811115610ed257610ed1612623565b5b604051908082528060200260200182016040528015610f0557816020015b6060815260200190600190039081610ef05790505b50611b3d565b505050565b5f80610f1b84611945565b90505f73ffffffffffffffffffffffffffffffffffffffff168373ffffffffffffffffffffffffffffffffffffffff1614610f5c57610f5b818486611be6565b5b5f73ffffffffffffffffffffffffffffffffffffffff168173ffffffffffffffffffffffffffffffffffffffff1614610fe757610f9b5f855f8061197e565b600160035f8373ffffffffffffffffffffffffffffffffffffffff1673ffffffffffffffffffffffffffffffffffffffff1681526020019081526020015f205f82825403925050819055505b5f73ffffffffffffffffffffffffffffffffffffffff168573ffffffffffffffffffffffffffffffffffffffff161461106657600160035f8773ffffffffffffffffffffffffffffffffffffffff1673ffffffffffffffffffffffffffffffffffffffff1681526020019081526020015f205f82825401925050819055505b8460025f8681526020019081526020015f205f6101000a81548173ffffffffffffffffffffffffffffffffffffffff021916908373ffffffffffffffffffffffffffffffffffffffff160217905550838573ffffffffffffffffffffffffffffffffffffffff168273ffffffffffffffffffffffffffffffffffffffff167fddf252ad1be2c89b69c2b068fc378daa952ba7f163c4a11628f55a4df523b3ef60405160405180910390a4809150509392505050565b61113583838360405180602001604052805f815250611ca9565b505050565b5f5b815181101561117b5761116882828151811061115b5761115a6129d9565b5b60200260200101516117aa565b808061117390612a33565b91505061113c565b5050565b5f6001600a5f8573ffffffffffffffffffffffffffffffffffffffff1673ffffffffffffffffffffffffffffffffffffffff1681526020019081526020015f20805490506111cd9190612b0c565b90505f805f90505b600a5f8673ffffffffffffffffffffffffffffffffffffffff1673ffffffffffffffffffffffffffffffffffffffff1681526020019081526020015f20805490508110156112965783600a5f8773ffffffffffffffffffffffffffffffffffffffff1673ffffffffffffffffffffffffffffffffffffffff1681526020019081526020015f20828154811061126d5761126c6129d9565b5b905f5260205f2001540361128357809150611296565b808061128e90612a33565b9150506111d5565b505f600a5f8673ffffffffffffffffffffffffffffffffffffffff1673ffffffffffffffffffffffffffffffffffffffff1681526020019081526020015f2083815481106112e7576112e66129d9565b5b905f5260205f200154905080600a5f8773ffffffffffffffffffffffffffffffffffffffff1673ffffffffffffffffffffffffffffffffffffffff1681526020019081526020015f208381548110611342576113416129d9565b5b905f5260205f200181905550600a5f8673ffffffffffffffffffffffffffffffffffffffff1673ffffffffffffffffffffffffffffffffffffffff1681526020019081526020015f2080548061139b5761139a612b3f565b5b600190038181905f5260205f20015f905590555050505050565b5f73ffffffffffffffffffffffffffffffffffffffff168273ffffffffffffffffffffffffffffffffffffffff160361142557816040517f5b08ba1800000000000000000000000000000000000000000000000000000000815260040161141c91906123d4565b60405180910390fd5b8060055f8573ffffffffffffffffffffffffffffffffffffffff1673ffffffffffffffffffffffffffffffffffffffff1681526020019081526020015f205f8473ffffffffffffffffffffffffffffffffffffffff1673ffffffffffffffffffffffffffffffffffffffff1681526020019081526020015f205f6101000a81548160ff0219169083151502179055508173ffffffffffffffffffffffffffffffffffffffff168373ffffffffffffffffffffffffffffffffffffffff167f17307eab39ab6107e8899845ad3d59bd9653f200f220920489ca2b5937696c31836040516115119190612274565b60405180910390a3505050565b5f8373ffffffffffffffffffffffffffffffffffffffff163b11156116c3578273ffffffffffffffffffffffffffffffffffffffff1663150b7a02868685856040518563ffffffff1660e01b815260040161157c9493929190612bbe565b6020604051808303815f875af19250505080156115b757506040513d601f19601f820116820180604052508101906115b49190612c1c565b60015b611638573d805f81146115e5576040519150601f19603f3d011682016040523d82523d5f602084013e6115ea565b606091505b505f81510361163057836040517f64a0ae9200000000000000000000000000000000000000000000000000000000815260040161162791906123d4565b60405180910390fd5b805181602001fd5b63150b7a0260e01b7bffffffffffffffffffffffffffffffffffffffffffffffffffffffff1916817bffffffffffffffffffffffffffffffffffffffffffffffffffffffff1916146116c157836040517f64a0ae920000000000000000000000000000000000000000000000000000000081526004016116b891906123d4565b60405180910390fd5b505b5050505050565b606060405180602001604052805f815250905090565b60605f60016116ee84611e0e565b0190505f8167ffffffffffffffff81111561170c5761170b612623565b5b6040519080825280601f01601f19166020018201604052801561173e5781602001600182028036833780820191505090505b5090505f82602001820190505b60011561179f578080600190039150507f3031323334353637383961626364656600000000000000000000000000000000600a86061a8153600a858161179457611793612c47565b5b0494505f850361174b575b819350505050919050565b6117b381610dd9565b506117bd81610c3b565b6117fc576040517f08c379a00000000000000000000000000000000000000000000000000000000081526004016117f390612cbe565b60405180910390fd5b61180581611f5f565b61180e81611f62565b5f60065f8381526020019081526020015f205490505f600160075f8481526020019081526020015f20805490506118459190612b0c565b90505f60085f8581526020019081526020015f205490505f60075f8581526020019081526020015f2083815481106118805761187f6129d9565b5b905f5260205f20015490508282146118d9578060075f8681526020019081526020015f2083815481106118b6576118b56129d9565b5b905f5260205f2001819055508160085f8381526020019081526020015f20819055505b60075f8581526020019081526020015f208054806118fa576118f9612b3f565b5b600190038181905f5260205f20015f9055905560085f8681526020019081526020015f205f905560065f8681526020019081526020015f205f905561193e85611fe4565b5050505050565b5f60025f8381526020019081526020015f205f9054906101000a900473ffffffffffffffffffffffffffffffffffffffff169050919050565b80806119b657505f73ffffffffffffffffffffffffffffffffffffffff168273ffffffffffffffffffffffffffffffffffffffff1614155b15611ae8575f6119c584610dd9565b90505f73ffffffffffffffffffffffffffffffffffffffff168373ffffffffffffffffffffffffffffffffffffffff1614158015611a2f57508273ffffffffffffffffffffffffffffffffffffffff168173ffffffffffffffffffffffffffffffffffffffff1614155b8015611a425750611a408184610ce2565b155b15611a8457826040517fa9fbf51f000000000000000000000000000000000000000000000000000000008152600401611a7b91906123d4565b60405180910390fd5b8115611ae657838573ffffffffffffffffffffffffffffffffffffffff168273ffffffffffffffffffffffffffffffffffffffff167f8c5be1e5ebec7d5bd14f71427d1e84f3dd0314c0f7b2291e5b200ac8c7c3b92560405160405180910390a45b505b8360045f8581526020019081526020015f205f6101000a81548173ffffffffffffffffffffffffffffffffffffffff021916908373ffffffffffffffffffffffffffffffffffffffff16021790555050505050565b8051825114611b81576040517f08c379a0000000000000000000000000000000000000000000000000000000008152600401611b7890612d4c565b60405180910390fd5b5f5b8251811015611bdf57611bcc8585858481518110611ba457611ba36129d9565b5b6020026020010151858581518110611bbf57611bbe6129d9565b5b6020026020010151611ca9565b8080611bd790612a33565b915050611b83565b5050505050565b611bf1838383611fe7565b611ca4575f73ffffffffffffffffffffffffffffffffffffffff168373ffffffffffffffffffffffffffffffffffffffff1603611c6557806040517f7e273289000000000000000000000000000000000000000000000000000000008152600401611c5c9190612606565b60405180910390fd5b81816040517f177e802f000000000000000000000000000000000000000000000000000000008152600401611c9b929190612d6a565b60405180910390fd5b505050565b5f8203611ceb576040517f08c379a0000000000000000000000000000000000000000000000000000000008152600401611ce290612ddb565b60405180910390fd5b5f8314611cfd57611cfb83610dd9565b505b611d09848484846120a7565b611d148483836120ad565b8260065f8481526020019081526020015f208190555060075f8481526020019081526020015f2082908060018154018082558091505060019003905f5260205f20015f9091909190915055600160075f8581526020019081526020015f2080549050611d809190612b0c565b60085f8481526020019081526020015f20819055508373ffffffffffffffffffffffffffffffffffffffff163373ffffffffffffffffffffffffffffffffffffffff167f03f17d66ad3bf18e9412eb06582908831508cdb9b8da9cddb1431f645a5b86328585604051611df4929190612df9565b60405180910390a3611e08848484846120d0565b50505050565b5f805f90507a184f03e93ff9f4daa797ed6e38ed64bf6a1f0100000000000000008310611e6a577a184f03e93ff9f4daa797ed6e38ed64bf6a1f0100000000000000008381611e6057611e5f612c47565b5b0492506040810190505b6d04ee2d6d415b85acef81000000008310611ea7576d04ee2d6d415b85acef81000000008381611e9d57611e9c612c47565b5b0492506020810190505b662386f26fc100008310611ed657662386f26fc100008381611ecc57611ecb612c47565b5b0492506010810190505b6305f5e1008310611eff576305f5e1008381611ef557611ef4612c47565b5b0492506008810190505b6127108310611f24576127108381611f1a57611f19612c47565b5b0492506004810190505b60648310611f475760648381611f3d57611f3c612c47565b5b0492506002810190505b600a8310611f56576001810190505b80915050919050565b50565b5f611f6e5f835f610f10565b90505f73ffffffffffffffffffffffffffffffffffffffff168173ffffffffffffffffffffffffffffffffffffffff1603611fe057816040517f7e273289000000000000000000000000000000000000000000000000000000008152600401611fd79190612606565b60405180910390fd5b5050565b50565b5f8073ffffffffffffffffffffffffffffffffffffffff168373ffffffffffffffffffffffffffffffffffffffff161415801561209e57508273ffffffffffffffffffffffffffffffffffffffff168473ffffffffffffffffffffffffffffffffffffffff16148061205f575061205e8484610ce2565b5b8061209d57508273ffffffffffffffffffffffffffffffffffffffff1661208583610e5f565b73ffffffffffffffffffffffffffffffffffffffff16145b5b90509392505050565b50505050565b6120b783836120d6565b6120cb6120c2610e98565b5f85858561151e565b505050565b50505050565b5f73ffffffffffffffffffffffffffffffffffffffff168273ffffffffffffffffffffffffffffffffffffffff1603612146575f6040517f64a0ae9200000000000000000000000000000000000000000000000000000000815260040161213d91906123d4565b60405180910390fd5b5f61215283835f610f10565b90505f73ffffffffffffffffffffffffffffffffffffffff168173ffffffffffffffffffffffffffffffffffffffff16146121c4575f6040517f73c6ac6e0000000000000000000000000000000000000000000000000000000081526004016121bb91906123d4565b60405180910390fd5b505050565b5f604051905090565b5f80fd5b5f80fd5b5f7fffffffff0000000000000000000000000000000000000000000000000000000082169050919050565b61220e816121da565b8114612218575f80fd5b50565b5f8135905061222981612205565b92915050565b5f60208284031215612244576122436121d2565b5b5f6122518482850161221b565b91505092915050565b5f8115159050919050565b61226e8161225a565b82525050565b5f6020820190506122875f830184612265565b92915050565b5f81519050919050565b5f82825260208201905092915050565b5f5b838110156122c45780820151818401526020810190506122a9565b5f8484015250505050565b5f601f19601f8301169050919050565b5f6122e98261228d565b6122f38185612297565b93506123038185602086016122a7565b61230c816122cf565b840191505092915050565b5f6020820190508181035f83015261232f81846122df565b905092915050565b5f819050919050565b61234981612337565b8114612353575f80fd5b50565b5f8135905061236481612340565b92915050565b5f6020828403121561237f5761237e6121d2565b5b5f61238c84828501612356565b91505092915050565b5f73ffffffffffffffffffffffffffffffffffffffff82169050919050565b5f6123be82612395565b9050919050565b6123ce816123b4565b82525050565b5f6020820190506123e75f8301846123c5565b92915050565b6123f6816123b4565b8114612400575f80fd5b50565b5f81359050612411816123ed565b92915050565b5f806040838503121561242d5761242c6121d2565b5b5f61243a85828601612403565b925050602061244b85828601612356565b9150509250929050565b5f805f6060848603121561246c5761246b6121d2565b5b5f61247986828701612403565b935050602061248a86828701612356565b925050604061249b86828701612356565b9150509250925092565b5f805f606084860312156124bc576124bb6121d2565b5b5f6124c986828701612403565b93505060206124da86828701612403565b92505060406124eb86828701612356565b9150509250925092565b5f81519050919050565b5f82825260208201905092915050565b5f819050602082019050919050565b61252781612337565b82525050565b5f612538838361251e565b60208301905092915050565b5f602082019050919050565b5f61255a826124f5565b61256481856124ff565b935061256f8361250f565b805f5b8381101561259f578151612586888261252d565b975061259183612544565b925050600181019050612572565b5085935050505092915050565b5f6020820190508181035f8301526125c48184612550565b905092915050565b5f602082840312156125e1576125e06121d2565b5b5f6125ee84828501612403565b91505092915050565b61260081612337565b82525050565b5f6020820190506126195f8301846125f7565b92915050565b5f80fd5b7f4e487b71000000000000000000000000000000000000000000000000000000005f52604160045260245ffd5b612659826122cf565b810181811067ffffffffffffffff8211171561267857612677612623565b5b80604052505050565b5f61268a6121c9565b90506126968282612650565b919050565b5f67ffffffffffffffff8211156126b5576126b4612623565b5b602082029050602081019050919050565b5f80fd5b5f6126dc6126d78461269b565b612681565b905080838252602082019050602084028301858111156126ff576126fe6126c6565b5b835b8181101561272857806127148882612356565b845260208401935050602081019050612701565b5050509392505050565b5f82601f8301126127465761274561261f565b5b81356127568482602086016126ca565b91505092915050565b5f60208284031215612774576127736121d2565b5b5f82013567ffffffffffffffff811115612791576127906121d6565b5b61279d84828501612732565b91505092915050565b6127af8161225a565b81146127b9575f80fd5b50565b5f813590506127ca816127a6565b92915050565b5f80604083850312156127e6576127e56121d2565b5b5f6127f385828601612403565b9250506020612804858286016127bc565b9150509250929050565b5f80fd5b5f67ffffffffffffffff82111561282c5761282b612623565b5b612835826122cf565b9050602081019050919050565b828183375f83830152505050565b5f61286261285d84612812565b612681565b90508281526020810184848401111561287e5761287d61280e565b5b612889848285612842565b509392505050565b5f82601f8301126128a5576128a461261f565b5b81356128b5848260208601612850565b91505092915050565b5f805f80608085870312156128d6576128d56121d2565b5b5f6128e387828801612403565b94505060206128f487828801612403565b935050604061290587828801612356565b925050606085013567ffffffffffffffff811115612926576129256121d6565b5b61293287828801612891565b91505092959194509250565b5f8060408385031215612954576129536121d2565b5b5f61296185828601612403565b925050602061297285828601612403565b9150509250929050565b7f4e487b71000000000000000000000000000000000000000000000000000000005f52602260045260245ffd5b5f60028204905060018216806129c057607f821691505b6020821081036129d3576129d261297c565b5b50919050565b7f4e487b71000000000000000000000000000000000000000000000000000000005f52603260045260245ffd5b7f4e487b71000000000000000000000000000000000000000000000000000000005f52601160045260245ffd5b5f612a3d82612337565b91507fffffffffffffffffffffffffffffffffffffffffffffffffffffffffffffffff8203612a6f57612a6e612a06565b5b600182019050919050565b5f606082019050612a8d5f8301866123c5565b612a9a60208301856125f7565b612aa760408301846123c5565b949350505050565b5f81905092915050565b5f612ac38261228d565b612acd8185612aaf565b9350612add8185602086016122a7565b80840191505092915050565b5f612af48285612ab9565b9150612b008284612ab9565b91508190509392505050565b5f612b1682612337565b9150612b2183612337565b9250828203905081811115612b3957612b38612a06565b5b92915050565b7f4e487b71000000000000000000000000000000000000000000000000000000005f52603160045260245ffd5b5f81519050919050565b5f82825260208201905092915050565b5f612b9082612b6c565b612b9a8185612b76565b9350612baa8185602086016122a7565b612bb3816122cf565b840191505092915050565b5f608082019050612bd15f8301876123c5565b612bde60208301866123c5565b612beb60408301856125f7565b8181036060830152612bfd8184612b86565b905095945050505050565b5f81519050612c1681612205565b92915050565b5f60208284031215612c3157612c306121d2565b5b5f612c3e84828501612c08565b91505092915050565b7f4e487b71000000000000000000000000000000000000000000000000000000005f52601260045260245ffd5b7f4f6e6c79206c65616620746f6b656e732063616e206265206275726e656421005f82015250565b5f612ca8601f83612297565b9150612cb382612c74565b602082019050919050565b5f6020820190508181035f830152612cd581612c9c565b9050919050565b7f4e756d626572206f6620746f6b656e73206d75737420626520657175616c20745f8201527f6f20746865206c656e677468206f662074686520646174612100000000000000602082015250565b5f612d36603983612297565b9150612d4182612cdc565b604082019050919050565b5f6020820190508181035f830152612d6381612d2a565b9050919050565b5f604082019050612d7d5f8301856123c5565b612d8a60208301846125f7565b9392505050565b7f4552433631353020546f6b656e49642063616e6e6f74206265207a65726f21005f82015250565b5f612dc5601f83612297565b9150612dd082612d91565b602082019050919050565b5f6020820190508181035f830152612df281612db9565b9050919050565b5f604082019050612e0c5f8301856125f7565b612e1960208301846125f7565b939250505056fea2646970667358221220878a2cd40090d3fc40745c587a283107407e2c8ae46b8f6fded8d715ee08446f64736f6c63430008140033",
  "immutableReferences": {},
  "source": "// SPDX-License-Identifier: MIT\npragma solidity ^0.8.0;\n\nimport {ERC6150} from \"./ERC6150.sol\";\n\ncontract ERC6150Token is ERC6150 {\n\n    // Variable to keep track of the next token ID\n    uint256 private idCounter;\n\n    // Mapping from owner to list of owned token IDs\n    mapping(address => uint256[]) private _ownedTokens;\n\n    constructor(string memory name, string memory symbol) ERC6150(name, symbol) {\n        idCounter = 1;\n    }\n\n    /*\n    Public function to safely mint a hierarchical token.\n    Calls _safeMintHierarchical defined in the abstract contract.\n    */\n    function safeMintHierarchical(address to, uint256 parentId) public {\n        uint256 tokenId = idCounter;\n        _safeMintHierarchical(to, parentId, tokenId);\n        _ownedTokens[to].push(tokenId);\n        idCounter++;\n    }\n\n    /*\n    Public function to safely mint a batch of hierarchical tokens.\n    Calls _safeBatchMintHierarchical defined in the abstract contract.\n    */\n    function safeBatchMintHierarchical(address to, uint256 parentId, uint256 numberOfTokens) public {\n        uint256[] memory tokenIds = new uint256[](numberOfTokens);\n        for (uint256 i = 0; i < numberOfTokens; i++) {\n            tokenIds[i] = idCounter;\n            _ownedTokens[to].push(idCounter);\n            idCounter++;\n        }\n        _safeBatchMintHierarchical(to, parentId, tokenIds);\n    }\n\n    /*\n    Public function to safely burn a token.\n    Calls _safeBurn defined in the abstract contract.\n    */\n    function safeBurn(uint256 tokenId) public {\n        _safeBurn(tokenId);\n        _removeTokenFromOwnerEnumeration(msg.sender, tokenId);\n    }\n\n    /*\n    Public function to safely burn a batch of tokens.\n    Calls _safeBatchBurn defined in the abstract contract.\n    */\n    function safeBatchBurn(uint256[] memory tokenIds) public {\n        _safeBatchBurn(tokenIds);\n        for (uint256 i = 0; i < tokenIds.length; i++) {\n            _removeTokenFromOwnerEnumeration(msg.sender, tokenIds[i]);\n        }\n    }\n\n    /*\n    Public function to get the list of token IDs owned by a specific address.\n    */\n    function tokensOfOwner(address owner) public view returns (uint256[] memory) {\n        return _ownedTokens[owner];\n    }\n\n    /*\n    Override the _beforeSafeMintHierarchical to add additional operations.\n    */\n    function _beforeSafeMintHierarchical(address to, uint256 parentId, uint256 tokenId, bytes memory data) internal virtual override {\n        \n    }\n\n    /*\n    Override the _afterSafeMintHierarchical to add additional operations.\n    */\n    function _afterSafeMintHierarchical(address to, uint256 parentId, uint256 tokenId, bytes memory data) internal virtual override {\n        \n    }\n\n    /*\n    Override the _beforeSafeBurn to add additional operations.\n    */\n    function _beforeSafeBurn(uint256 tokenId) internal virtual override {\n        \n    }\n\n    /*\n    Override the _afterSafeBurn to add additional operations.\n    */\n    function _afterSafeBurn(uint256 tokenId) internal virtual override {\n        \n    }\n\n    /*\n    Internal function to remove a token from the list of owned tokens of an address.\n    */\n    function _removeTokenFromOwnerEnumeration(address from, uint256 tokenId) private {\n        uint256 lastTokenIndex = _ownedTokens[from].length - 1;\n        uint256 tokenIndex;\n\n        // Find the index of the token to remove\n        for (uint256 i = 0; i < _ownedTokens[from].length; i++) {\n            if (_ownedTokens[from][i] == tokenId) {\n                tokenIndex = i;\n                break;\n            }\n        }\n\n        uint256 lastTokenId = _ownedTokens[from][lastTokenIndex];\n\n        _ownedTokens[from][tokenIndex] = lastTokenId;\n        _ownedTokens[from].pop();\n    }\n}\n",
  "sourcePath": "/Users/volkan/Desktop/cmpe492-backend/contracts/ERC6150Token.sol",
  "compiler": {
    "name": "solc",
    "version": "0.8.20+commit.a1b79de6.Emscripten.clang"
  },
  "schemaVersion": "3.4.13",
  "updatedAt": "2024-06-05T16:20:51.822Z",
  "networkType": "ethereum",
  "devdoc": {
    "errors": {
      "ERC721IncorrectOwner(address,uint256,address)": [
        {
          "details": "Indicates an error related to the ownership over a particular token. Used in transfers.",
          "params": {
            "owner": "Address of the current owner of a token.",
            "sender": "Address whose tokens are being transferred.",
            "tokenId": "Identifier number of a token."
          }
        }
      ],
      "ERC721InsufficientApproval(address,uint256)": [
        {
          "details": "Indicates a failure with the `operator`s approval. Used in transfers.",
          "params": {
            "operator": "Address that may be allowed to operate on tokens without being their owner.",
            "tokenId": "Identifier number of a token."
          }
        }
      ],
      "ERC721InvalidApprover(address)": [
        {
          "details": "Indicates a failure with the `approver` of a token to be approved. Used in approvals.",
          "params": {
            "approver": "Address initiating an approval operation."
          }
        }
      ],
      "ERC721InvalidOperator(address)": [
        {
          "details": "Indicates a failure with the `operator` to be approved. Used in approvals.",
          "params": {
            "operator": "Address that may be allowed to operate on tokens without being their owner."
          }
        }
      ],
      "ERC721InvalidOwner(address)": [
        {
          "details": "Indicates that an address can't be an owner. For example, `address(0)` is a forbidden owner in ERC-20. Used in balance queries.",
          "params": {
            "owner": "Address of the current owner of a token."
          }
        }
      ],
      "ERC721InvalidReceiver(address)": [
        {
          "details": "Indicates a failure with the token `receiver`. Used in transfers.",
          "params": {
            "receiver": "Address to which tokens are being transferred."
          }
        }
      ],
      "ERC721InvalidSender(address)": [
        {
          "details": "Indicates a failure with the token `sender`. Used in transfers.",
          "params": {
            "sender": "Address whose tokens are being transferred."
          }
        }
      ],
      "ERC721NonexistentToken(uint256)": [
        {
          "details": "Indicates a `tokenId` whose `owner` is the zero address.",
          "params": {
            "tokenId": "Identifier number of a token."
          }
        }
      ]
    },
    "events": {
      "Approval(address,address,uint256)": {
        "details": "Emitted when `owner` enables `approved` to manage the `tokenId` token."
      },
      "ApprovalForAll(address,address,bool)": {
        "details": "Emitted when `owner` enables or disables (`approved`) `operator` to manage all of its assets."
      },
      "Minted(address,address,uint256,uint256)": {
        "params": {
          "minter": "The address of minter",
          "parentId": "The id of parent token, if it's zero, it means minted `tokenId` is a root token.",
          "to": "The address received token",
          "tokenId": "The id of minted token, required to be greater than zero"
        }
      },
      "Transfer(address,address,uint256)": {
        "details": "Emitted when `tokenId` token is transferred from `from` to `to`."
      }
    },
    "kind": "dev",
    "methods": {
      "approve(address,uint256)": {
        "details": "See {IERC721-approve}."
      },
      "balanceOf(address)": {
        "details": "See {IERC721-balanceOf}."
      },
      "childrenOf(uint256)": {
        "params": {
          "tokenId": "The parent token"
        },
        "returns": {
          "childrenIds": "The array of children tokens"
        }
      },
      "getApproved(uint256)": {
        "details": "See {IERC721-getApproved}."
      },
      "isApprovedForAll(address,address)": {
        "details": "See {IERC721-isApprovedForAll}."
      },
      "isLeaf(uint256)": {
        "params": {
          "tokenId": "The token want to be checked"
        },
        "returns": {
          "leaf": "Return `true` if it is a leaf token; if not, return `false`"
        }
      },
      "isRoot(uint256)": {
        "params": {
          "tokenId": "The token want to be checked"
        },
        "returns": {
          "root": "Return `true` if it is a root token; if not, return `false`"
        }
      },
      "name()": {
        "details": "See {IERC721Metadata-name}."
      },
      "ownerOf(uint256)": {
        "details": "See {IERC721-ownerOf}."
      },
      "parentOf(uint256)": {
        "params": {
          "tokenId": "The child token"
        },
        "returns": {
          "parentId": "The Parent token found"
        }
      },
      "safeTransferFrom(address,address,uint256)": {
        "details": "See {IERC721-safeTransferFrom}."
      },
      "safeTransferFrom(address,address,uint256,bytes)": {
        "details": "See {IERC721-safeTransferFrom}."
      },
      "setApprovalForAll(address,bool)": {
        "details": "See {IERC721-setApprovalForAll}."
      },
      "supportsInterface(bytes4)": {
        "details": "See {IERC165-supportsInterface}."
      },
      "symbol()": {
        "details": "See {IERC721Metadata-symbol}."
      },
      "tokenURI(uint256)": {
        "details": "See {IERC721Metadata-tokenURI}."
      },
      "transferFrom(address,address,uint256)": {
        "details": "See {IERC721-transferFrom}."
      }
    },
    "version": 1
  },
  "userdoc": {
    "events": {
      "Minted(address,address,uint256,uint256)": {
        "notice": "Emitted when `tokenId` token under `parentId` is minted."
      }
    },
    "kind": "user",
    "methods": {
      "childrenOf(uint256)": {
        "notice": "Get the children tokens of `tokenId` token."
      },
      "isLeaf(uint256)": {
        "notice": "Check the `tokenId` token if it is a leaf token."
      },
      "isRoot(uint256)": {
        "notice": "Check the `tokenId` token if it is a root token."
      },
      "parentOf(uint256)": {
        "notice": "Get the parent token of `tokenId` token."
      }
    },
    "version": 1
  }
}