{
  "contractName": "MyERC6150Token",
  "abi": [
    {
      "inputs": [
        {
          "internalType": "string",
          "name": "name",
          "type": "string"
        },
        {
          "internalType": "string",
          "name": "symbol",
          "type": "string"
        }
      ],
      "stateMutability": "nonpayable",
      "type": "constructor"
    },
    {
      "inputs": [
        {
          "internalType": "address",
          "name": "sender",
          "type": "address"
        },
        {
          "internalType": "uint256",
          "name": "tokenId",
          "type": "uint256"
        },
        {
          "internalType": "address",
          "name": "owner",
          "type": "address"
        }
      ],
      "name": "ERC721IncorrectOwner",
      "type": "error"
    },
    {
      "inputs": [
        {
          "internalType": "address",
          "name": "operator",
          "type": "address"
        },
        {
          "internalType": "uint256",
          "name": "tokenId",
          "type": "uint256"
        }
      ],
      "name": "ERC721InsufficientApproval",
      "type": "error"
    },
    {
      "inputs": [
        {
          "internalType": "address",
          "name": "approver",
          "type": "address"
        }
      ],
      "name": "ERC721InvalidApprover",
      "type": "error"
    },
    {
      "inputs": [
        {
          "internalType": "address",
          "name": "operator",
          "type": "address"
        }
      ],
      "name": "ERC721InvalidOperator",
      "type": "error"
    },
    {
      "inputs": [
        {
          "internalType": "address",
          "name": "owner",
          "type": "address"
        }
      ],
      "name": "ERC721InvalidOwner",
      "type": "error"
    },
    {
      "inputs": [
        {
          "internalType": "address",
          "name": "receiver",
          "type": "address"
        }
      ],
      "name": "ERC721InvalidReceiver",
      "type": "error"
    },
    {
      "inputs": [
        {
          "internalType": "address",
          "name": "sender",
          "type": "address"
        }
      ],
      "name": "ERC721InvalidSender",
      "type": "error"
    },
    {
      "inputs": [
        {
          "internalType": "uint256",
          "name": "tokenId",
          "type": "uint256"
        }
      ],
      "name": "ERC721NonexistentToken",
      "type": "error"
    },
    {
      "anonymous": false,
      "inputs": [
        {
          "indexed": true,
          "internalType": "address",
          "name": "owner",
          "type": "address"
        },
        {
          "indexed": true,
          "internalType": "address",
          "name": "approved",
          "type": "address"
        },
        {
          "indexed": true,
          "internalType": "uint256",
          "name": "tokenId",
          "type": "uint256"
        }
      ],
      "name": "Approval",
      "type": "event"
    },
    {
      "anonymous": false,
      "inputs": [
        {
          "indexed": true,
          "internalType": "address",
          "name": "owner",
          "type": "address"
        },
        {
          "indexed": true,
          "internalType": "address",
          "name": "operator",
          "type": "address"
        },
        {
          "indexed": false,
          "internalType": "bool",
          "name": "approved",
          "type": "bool"
        }
      ],
      "name": "ApprovalForAll",
      "type": "event"
    },
    {
      "anonymous": false,
      "inputs": [
        {
          "indexed": true,
          "internalType": "address",
          "name": "minter",
          "type": "address"
        },
        {
          "indexed": true,
          "internalType": "address",
          "name": "to",
          "type": "address"
        },
        {
          "indexed": false,
          "internalType": "uint256",
          "name": "parentId",
          "type": "uint256"
        },
        {
          "indexed": false,
          "internalType": "uint256",
          "name": "tokenId",
          "type": "uint256"
        }
      ],
      "name": "Minted",
      "type": "event"
    },
    {
      "anonymous": false,
      "inputs": [
        {
          "indexed": true,
          "internalType": "address",
          "name": "from",
          "type": "address"
        },
        {
          "indexed": true,
          "internalType": "address",
          "name": "to",
          "type": "address"
        },
        {
          "indexed": true,
          "internalType": "uint256",
          "name": "tokenId",
          "type": "uint256"
        }
      ],
      "name": "Transfer",
      "type": "event"
    },
    {
      "inputs": [
        {
          "internalType": "address",
          "name": "to",
          "type": "address"
        },
        {
          "internalType": "uint256",
          "name": "tokenId",
          "type": "uint256"
        }
      ],
      "name": "approve",
      "outputs": [],
      "stateMutability": "nonpayable",
      "type": "function"
    },
    {
      "inputs": [
        {
          "internalType": "address",
          "name": "owner",
          "type": "address"
        }
      ],
      "name": "balanceOf",
      "outputs": [
        {
          "internalType": "uint256",
          "name": "",
          "type": "uint256"
        }
      ],
      "stateMutability": "view",
      "type": "function"
    },
    {
      "inputs": [
        {
          "internalType": "uint256",
          "name": "tokenId",
          "type": "uint256"
        }
      ],
      "name": "childrenOf",
      "outputs": [
        {
          "internalType": "uint256[]",
          "name": "childrenIds",
          "type": "uint256[]"
        }
      ],
      "stateMutability": "view",
      "type": "function"
    },
    {
      "inputs": [
        {
          "internalType": "uint256",
          "name": "tokenId",
          "type": "uint256"
        }
      ],
      "name": "getApproved",
      "outputs": [
        {
          "internalType": "address",
          "name": "",
          "type": "address"
        }
      ],
      "stateMutability": "view",
      "type": "function"
    },
    {
      "inputs": [
        {
          "internalType": "address",
          "name": "owner",
          "type": "address"
        },
        {
          "internalType": "address",
          "name": "operator",
          "type": "address"
        }
      ],
      "name": "isApprovedForAll",
      "outputs": [
        {
          "internalType": "bool",
          "name": "",
          "type": "bool"
        }
      ],
      "stateMutability": "view",
      "type": "function"
    },
    {
      "inputs": [
        {
          "internalType": "uint256",
          "name": "tokenId",
          "type": "uint256"
        }
      ],
      "name": "isLeaf",
      "outputs": [
        {
          "internalType": "bool",
          "name": "leaf",
          "type": "bool"
        }
      ],
      "stateMutability": "view",
      "type": "function"
    },
    {
      "inputs": [
        {
          "internalType": "uint256",
          "name": "tokenId",
          "type": "uint256"
        }
      ],
      "name": "isRoot",
      "outputs": [
        {
          "internalType": "bool",
          "name": "root",
          "type": "bool"
        }
      ],
      "stateMutability": "view",
      "type": "function"
    },
    {
      "inputs": [],
      "name": "name",
      "outputs": [
        {
          "internalType": "string",
          "name": "",
          "type": "string"
        }
      ],
      "stateMutability": "view",
      "type": "function"
    },
    {
      "inputs": [
        {
          "internalType": "uint256",
          "name": "tokenId",
          "type": "uint256"
        }
      ],
      "name": "ownerOf",
      "outputs": [
        {
          "internalType": "address",
          "name": "",
          "type": "address"
        }
      ],
      "stateMutability": "view",
      "type": "function"
    },
    {
      "inputs": [
        {
          "internalType": "uint256",
          "name": "tokenId",
          "type": "uint256"
        }
      ],
      "name": "parentOf",
      "outputs": [
        {
          "internalType": "uint256",
          "name": "parentId",
          "type": "uint256"
        }
      ],
      "stateMutability": "view",
      "type": "function"
    },
    {
      "inputs": [
        {
          "internalType": "address",
          "name": "from",
          "type": "address"
        },
        {
          "internalType": "address",
          "name": "to",
          "type": "address"
        },
        {
          "internalType": "uint256",
          "name": "tokenId",
          "type": "uint256"
        }
      ],
      "name": "safeTransferFrom",
      "outputs": [],
      "stateMutability": "nonpayable",
      "type": "function"
    },
    {
      "inputs": [
        {
          "internalType": "address",
          "name": "from",
          "type": "address"
        },
        {
          "internalType": "address",
          "name": "to",
          "type": "address"
        },
        {
          "internalType": "uint256",
          "name": "tokenId",
          "type": "uint256"
        },
        {
          "internalType": "bytes",
          "name": "data",
          "type": "bytes"
        }
      ],
      "name": "safeTransferFrom",
      "outputs": [],
      "stateMutability": "nonpayable",
      "type": "function"
    },
    {
      "inputs": [
        {
          "internalType": "address",
          "name": "operator",
          "type": "address"
        },
        {
          "internalType": "bool",
          "name": "approved",
          "type": "bool"
        }
      ],
      "name": "setApprovalForAll",
      "outputs": [],
      "stateMutability": "nonpayable",
      "type": "function"
    },
    {
      "inputs": [
        {
          "internalType": "bytes4",
          "name": "interfaceId",
          "type": "bytes4"
        }
      ],
      "name": "supportsInterface",
      "outputs": [
        {
          "internalType": "bool",
          "name": "",
          "type": "bool"
        }
      ],
      "stateMutability": "view",
      "type": "function"
    },
    {
      "inputs": [],
      "name": "symbol",
      "outputs": [
        {
          "internalType": "string",
          "name": "",
          "type": "string"
        }
      ],
      "stateMutability": "view",
      "type": "function"
    },
    {
      "inputs": [
        {
          "internalType": "uint256",
          "name": "tokenId",
          "type": "uint256"
        }
      ],
      "name": "tokenURI",
      "outputs": [
        {
          "internalType": "string",
          "name": "",
          "type": "string"
        }
      ],
      "stateMutability": "view",
      "type": "function"
    },
    {
      "inputs": [
        {
          "internalType": "address",
          "name": "from",
          "type": "address"
        },
        {
          "internalType": "address",
          "name": "to",
          "type": "address"
        },
        {
          "internalType": "uint256",
          "name": "tokenId",
          "type": "uint256"
        }
      ],
      "name": "transferFrom",
      "outputs": [],
      "stateMutability": "nonpayable",
      "type": "function"
    },
    {
      "inputs": [
        {
          "internalType": "address",
          "name": "to",
          "type": "address"
        },
        {
          "internalType": "uint256",
          "name": "parentId",
          "type": "uint256"
        }
      ],
      "name": "safeMintHierarchical",
      "outputs": [],
      "stateMutability": "nonpayable",
      "type": "function"
    },
    {
      "inputs": [
        {
          "internalType": "address",
          "name": "to",
          "type": "address"
        },
        {
          "internalType": "uint256",
          "name": "parentId",
          "type": "uint256"
        },
        {
          "internalType": "uint256",
          "name": "numberOfTokens",
          "type": "uint256"
        }
      ],
      "name": "safeBatchMintHierarchical",
      "outputs": [],
      "stateMutability": "nonpayable",
      "type": "function"
    },
    {
      "inputs": [
        {
          "internalType": "uint256",
          "name": "tokenId",
          "type": "uint256"
        }
      ],
      "name": "safeBurn",
      "outputs": [],
      "stateMutability": "nonpayable",
      "type": "function"
    },
    {
      "inputs": [
        {
          "internalType": "uint256[]",
          "name": "tokenIds",
          "type": "uint256[]"
        }
      ],
      "name": "safeBatchBurn",
      "outputs": [],
      "stateMutability": "nonpayable",
      "type": "function"
    }
  ],
  "bytecode": "0x608060405234801562000010575f80fd5b5060405162002fb038038062002fb08339818101604052810190620000369190620001f6565b81818181815f90816200004a9190620004b0565b5080600190816200005c9190620004b0565b50505050506001600981905550505062000594565b5f604051905090565b5f80fd5b5f80fd5b5f80fd5b5f80fd5b5f601f19601f8301169050919050565b7f4e487b71000000000000000000000000000000000000000000000000000000005f52604160045260245ffd5b620000d2826200008a565b810181811067ffffffffffffffff82111715620000f457620000f36200009a565b5b80604052505050565b5f6200010862000071565b9050620001168282620000c7565b919050565b5f67ffffffffffffffff8211156200013857620001376200009a565b5b62000143826200008a565b9050602081019050919050565b5f5b838110156200016f57808201518184015260208101905062000152565b5f8484015250505050565b5f620001906200018a846200011b565b620000fd565b905082815260208101848484011115620001af57620001ae62000086565b5b620001bc84828562000150565b509392505050565b5f82601f830112620001db57620001da62000082565b5b8151620001ed8482602086016200017a565b91505092915050565b5f80604083850312156200020f576200020e6200007a565b5b5f83015167ffffffffffffffff8111156200022f576200022e6200007e565b5b6200023d85828601620001c4565b925050602083015167ffffffffffffffff8111156200026157620002606200007e565b5b6200026f85828601620001c4565b9150509250929050565b5f81519050919050565b7f4e487b71000000000000000000000000000000000000000000000000000000005f52602260045260245ffd5b5f6002820490506001821680620002c857607f821691505b602082108103620002de57620002dd62000283565b5b50919050565b5f819050815f5260205f209050919050565b5f6020601f8301049050919050565b5f82821b905092915050565b5f60088302620003427fffffffffffffffffffffffffffffffffffffffffffffffffffffffffffffffff8262000305565b6200034e868362000305565b95508019841693508086168417925050509392505050565b5f819050919050565b5f819050919050565b5f62000398620003926200038c8462000366565b6200036f565b62000366565b9050919050565b5f819050919050565b620003b38362000378565b620003cb620003c2826200039f565b84845462000311565b825550505050565b5f90565b620003e1620003d3565b620003ee818484620003a8565b505050565b5b818110156200041557620004095f82620003d7565b600181019050620003f4565b5050565b601f82111562000464576200042e81620002e4565b6200043984620002f6565b8101602085101562000449578190505b620004616200045885620002f6565b830182620003f3565b50505b505050565b5f82821c905092915050565b5f620004865f198460080262000469565b1980831691505092915050565b5f620004a0838362000475565b9150826002028217905092915050565b620004bb8262000279565b67ffffffffffffffff811115620004d757620004d66200009a565b5b620004e38254620002b0565b620004f082828562000419565b5f60209050601f83116001811462000526575f841562000511578287015190505b6200051d858262000493565b8655506200058c565b601f1984166200053686620002e4565b5f5b828110156200055f5784890151825560018201915060208501945060208101905062000538565b868310156200057f57848901516200057b601f89168262000475565b8355505b6001600288020188555050505b505050505050565b612a0e80620005a25f395ff3fe608060405234801561000f575f80fd5b5060043610610135575f3560e01c806370a08231116100b6578063c87b56dd1161007a578063c87b56dd14610345578063cce3c13b14610375578063cfa3c132146103a5578063dbf51325146103d5578063e527b966146103f1578063e985e9c51461042157610135565b806370a08231146102a35780639135b963146102d357806395d89b41146102ef578063a22cb4651461030d578063b88d4fde1461032957610135565b806323b872dd116100fd57806323b872dd146101ef5780633f5940fc1461020b57806342842e0e146102275780636352211e146102435780636f19951c1461027357610135565b806301ffc9a71461013957806306fdde0314610169578063081812fc14610187578063095ea7b3146101b75780631dd5f0d0146101d3575b5f80fd5b610153600480360381019061014e9190611e14565b610451565b6040516101609190611e59565b60405180910390f35b610171610532565b60405161017e9190611efc565b60405180910390f35b6101a1600480360381019061019c9190611f4f565b6105c1565b6040516101ae9190611fb9565b60405180910390f35b6101d160048036038101906101cc9190611ffc565b6105dc565b005b6101ed60048036038101906101e8919061203a565b6105f2565b005b6102096004803603810190610204919061208a565b6106a6565b005b61022560048036038101906102209190611ffc565b6107a5565b005b610241600480360381019061023c919061208a565b6107d2565b005b61025d60048036038101906102589190611f4f565b6107f1565b60405161026a9190611fb9565b60405180910390f35b61028d60048036038101906102889190611f4f565b610802565b60405161029a9190612191565b60405180910390f35b6102bd60048036038101906102b891906121b1565b610873565b6040516102ca91906121eb565b60405180910390f35b6102ed60048036038101906102e89190612344565b610929565b005b6102f7610935565b6040516103049190611efc565b60405180910390f35b610327600480360381019061032291906123b5565b6109c5565b005b610343600480360381019061033e91906124a3565b6109db565b005b61035f600480360381019061035a9190611f4f565b610a00565b60405161036c9190611efc565b60405180910390f35b61038f600480360381019061038a9190611f4f565b610a66565b60405161039c9190611e59565b60405180910390f35b6103bf60048036038101906103ba9190611f4f565b610a9e565b6040516103cc91906121eb565b60405180910390f35b6103ef60048036038101906103ea9190611f4f565b610ac2565b005b61040b60048036038101906104069190611f4f565b610ace565b6040516104189190611e59565b60405180910390f35b61043b60048036038101906104369190612523565b610b03565b6040516104489190611e59565b60405180910390f35b5f7f80ac58cd000000000000000000000000000000000000000000000000000000007bffffffffffffffffffffffffffffffffffffffffffffffffffffffff1916827bffffffffffffffffffffffffffffffffffffffffffffffffffffffff1916148061051b57507f5b5e139f000000000000000000000000000000000000000000000000000000007bffffffffffffffffffffffffffffffffffffffffffffffffffffffff1916827bffffffffffffffffffffffffffffffffffffffffffffffffffffffff1916145b8061052b575061052a82610b91565b5b9050919050565b60605f80546105409061258e565b80601f016020809104026020016040519081016040528092919081815260200182805461056c9061258e565b80156105b75780601f1061058e576101008083540402835291602001916105b7565b820191905f5260205f20905b81548152906001019060200180831161059a57829003601f168201915b5050505050905090565b5f6105cb82610bfa565b506105d582610c80565b9050919050565b6105ee82826105e9610cb9565b610cc0565b5050565b5f8167ffffffffffffffff81111561060d5761060c612208565b5b60405190808252806020026020018201604052801561063b5781602001602082028036833780820191505090505b5090505f5b828110156106945760095482828151811061065e5761065d6125be565b5b60200260200101818152505060095f81548092919061067c90612618565b9190505550808061068c90612618565b915050610640565b506106a0848483610cd2565b50505050565b5f73ffffffffffffffffffffffffffffffffffffffff168273ffffffffffffffffffffffffffffffffffffffff1603610716575f6040517f64a0ae9200000000000000000000000000000000000000000000000000000000815260040161070d9190611fb9565b60405180910390fd5b5f6107298383610724610cb9565b610d31565b90508373ffffffffffffffffffffffffffffffffffffffff168173ffffffffffffffffffffffffffffffffffffffff161461079f578382826040517f64283d7b0000000000000000000000000000000000000000000000000000000081526004016107969392919061265f565b60405180910390fd5b50505050565b5f60095490506107b6838383610f3c565b60095f8154809291906107c890612618565b9190505550505050565b6107ec83838360405180602001604052805f8152506109db565b505050565b5f6107fb82610bfa565b9050919050565b606061080d82610bfa565b5060075f8381526020019081526020015f2080548060200260200160405190810160405280929190818152602001828054801561086757602002820191905f5260205f20905b815481526020019060010190808311610853575b50505050509050919050565b5f8073ffffffffffffffffffffffffffffffffffffffff168273ffffffffffffffffffffffffffffffffffffffff16036108e4575f6040517f89c62b640000000000000000000000000000000000000000000000000000000081526004016108db9190611fb9565b60405180910390fd5b60035f8373ffffffffffffffffffffffffffffffffffffffff1673ffffffffffffffffffffffffffffffffffffffff1681526020019081526020015f20549050919050565b61093281610f5b565b50565b6060600180546109449061258e565b80601f01602080910402602001604051908101604052809291908181526020018280546109709061258e565b80156109bb5780601f10610992576101008083540402835291602001916109bb565b820191905f5260205f20905b81548152906001019060200180831161099e57829003601f168201915b5050505050905090565b6109d76109d0610cb9565b8383610fa0565b5050565b6109e68484846106a6565b6109fa6109f1610cb9565b85858585611109565b50505050565b6060610a0b82610bfa565b505f610a156112b5565b90505f815111610a335760405180602001604052805f815250610a5e565b80610a3d846112cb565b604051602001610a4e9291906126ce565b6040516020818303038152906040525b915050919050565b5f610a7082610bfa565b505f60075f8481526020019081526020015f208054905003610a955760019050610a99565b5f90505b919050565b5f610aa882610bfa565b5060065f8381526020019081526020015f20549050919050565b610acb81611395565b50565b5f610ad882610bfa565b505f60065f8481526020019081526020015f205403610afa5760019050610afe565b5f90505b919050565b5f60055f8473ffffffffffffffffffffffffffffffffffffffff1673ffffffffffffffffffffffffffffffffffffffff1681526020019081526020015f205f8373ffffffffffffffffffffffffffffffffffffffff1673ffffffffffffffffffffffffffffffffffffffff1681526020019081526020015f205f9054906101000a900460ff16905092915050565b5f7f01ffc9a7000000000000000000000000000000000000000000000000000000007bffffffffffffffffffffffffffffffffffffffffffffffffffffffff1916827bffffffffffffffffffffffffffffffffffffffffffffffffffffffff1916149050919050565b5f80610c058361152a565b90505f73ffffffffffffffffffffffffffffffffffffffff168173ffffffffffffffffffffffffffffffffffffffff1603610c7757826040517f7e273289000000000000000000000000000000000000000000000000000000008152600401610c6e91906121eb565b60405180910390fd5b80915050919050565b5f60045f8381526020019081526020015f205f9054906101000a900473ffffffffffffffffffffffffffffffffffffffff169050919050565b5f33905090565b610ccd8383836001611563565b505050565b610d2c838383845167ffffffffffffffff811115610cf357610cf2612208565b5b604051908082528060200260200182016040528015610d2657816020015b6060815260200190600190039081610d115790505b50611722565b505050565b5f80610d3c8461152a565b90505f73ffffffffffffffffffffffffffffffffffffffff168373ffffffffffffffffffffffffffffffffffffffff1614610d7d57610d7c8184866117cb565b5b5f73ffffffffffffffffffffffffffffffffffffffff168173ffffffffffffffffffffffffffffffffffffffff1614610e0857610dbc5f855f80611563565b600160035f8373ffffffffffffffffffffffffffffffffffffffff1673ffffffffffffffffffffffffffffffffffffffff1681526020019081526020015f205f82825403925050819055505b5f73ffffffffffffffffffffffffffffffffffffffff168573ffffffffffffffffffffffffffffffffffffffff1614610e8757600160035f8773ffffffffffffffffffffffffffffffffffffffff1673ffffffffffffffffffffffffffffffffffffffff1681526020019081526020015f205f82825401925050819055505b8460025f8681526020019081526020015f205f6101000a81548173ffffffffffffffffffffffffffffffffffffffff021916908373ffffffffffffffffffffffffffffffffffffffff160217905550838573ffffffffffffffffffffffffffffffffffffffff168273ffffffffffffffffffffffffffffffffffffffff167fddf252ad1be2c89b69c2b068fc378daa952ba7f163c4a11628f55a4df523b3ef60405160405180910390a4809150509392505050565b610f5683838360405180602001604052805f81525061188e565b505050565b5f5b8151811015610f9c57610f89828281518110610f7c57610f7b6125be565b5b6020026020010151611395565b8080610f9490612618565b915050610f5d565b5050565b5f73ffffffffffffffffffffffffffffffffffffffff168273ffffffffffffffffffffffffffffffffffffffff160361101057816040517f5b08ba180000000000000000000000000000000000000000000000000000000081526004016110079190611fb9565b60405180910390fd5b8060055f8573ffffffffffffffffffffffffffffffffffffffff1673ffffffffffffffffffffffffffffffffffffffff1681526020019081526020015f205f8473ffffffffffffffffffffffffffffffffffffffff1673ffffffffffffffffffffffffffffffffffffffff1681526020019081526020015f205f6101000a81548160ff0219169083151502179055508173ffffffffffffffffffffffffffffffffffffffff168373ffffffffffffffffffffffffffffffffffffffff167f17307eab39ab6107e8899845ad3d59bd9653f200f220920489ca2b5937696c31836040516110fc9190611e59565b60405180910390a3505050565b5f8373ffffffffffffffffffffffffffffffffffffffff163b11156112ae578273ffffffffffffffffffffffffffffffffffffffff1663150b7a02868685856040518563ffffffff1660e01b81526004016111679493929190612743565b6020604051808303815f875af19250505080156111a257506040513d601f19601f8201168201806040525081019061119f91906127a1565b60015b611223573d805f81146111d0576040519150601f19603f3d011682016040523d82523d5f602084013e6111d5565b606091505b505f81510361121b57836040517f64a0ae920000000000000000000000000000000000000000000000000000000081526004016112129190611fb9565b60405180910390fd5b805181602001fd5b63150b7a0260e01b7bffffffffffffffffffffffffffffffffffffffffffffffffffffffff1916817bffffffffffffffffffffffffffffffffffffffffffffffffffffffff1916146112ac57836040517f64a0ae920000000000000000000000000000000000000000000000000000000081526004016112a39190611fb9565b60405180910390fd5b505b5050505050565b606060405180602001604052805f815250905090565b60605f60016112d9846119f3565b0190505f8167ffffffffffffffff8111156112f7576112f6612208565b5b6040519080825280601f01601f1916602001820160405280156113295781602001600182028036833780820191505090505b5090505f82602001820190505b60011561138a578080600190039150507f3031323334353637383961626364656600000000000000000000000000000000600a86061a8153600a858161137f5761137e6127cc565b5b0494505f8503611336575b819350505050919050565b61139e81610bfa565b506113a881610a66565b6113e7576040517f08c379a00000000000000000000000000000000000000000000000000000000081526004016113de90612843565b60405180910390fd5b6113f081611b44565b6113f981611b47565b5f60065f8381526020019081526020015f205490505f600160075f8481526020019081526020015f20805490506114309190612861565b90505f60085f8581526020019081526020015f205490505f60075f8581526020019081526020015f20838154811061146b5761146a6125be565b5b905f5260205f20015490508282146114c4578060075f8681526020019081526020015f2083815481106114a1576114a06125be565b5b905f5260205f2001819055508160085f8381526020019081526020015f20819055505b60075f8581526020019081526020015f2083815481106114e7576114e66125be565b5b905f5260205f20015f905560085f8681526020019081526020015f205f905560065f8681526020019081526020015f205f905561152385611bc9565b5050505050565b5f60025f8381526020019081526020015f205f9054906101000a900473ffffffffffffffffffffffffffffffffffffffff169050919050565b808061159b57505f73ffffffffffffffffffffffffffffffffffffffff168273ffffffffffffffffffffffffffffffffffffffff1614155b156116cd575f6115aa84610bfa565b90505f73ffffffffffffffffffffffffffffffffffffffff168373ffffffffffffffffffffffffffffffffffffffff161415801561161457508273ffffffffffffffffffffffffffffffffffffffff168173ffffffffffffffffffffffffffffffffffffffff1614155b801561162757506116258184610b03565b155b1561166957826040517fa9fbf51f0000000000000000000000000000000000000000000000000000000081526004016116609190611fb9565b60405180910390fd5b81156116cb57838573ffffffffffffffffffffffffffffffffffffffff168273ffffffffffffffffffffffffffffffffffffffff167f8c5be1e5ebec7d5bd14f71427d1e84f3dd0314c0f7b2291e5b200ac8c7c3b92560405160405180910390a45b505b8360045f8581526020019081526020015f205f6101000a81548173ffffffffffffffffffffffffffffffffffffffff021916908373ffffffffffffffffffffffffffffffffffffffff16021790555050505050565b8051825114611766576040517f08c379a000000000000000000000000000000000000000000000000000000000815260040161175d90612904565b60405180910390fd5b5f5b82518110156117c4576117b18585858481518110611789576117886125be565b5b60200260200101518585815181106117a4576117a36125be565b5b602002602001015161188e565b80806117bc90612618565b915050611768565b5050505050565b6117d6838383611bcc565b611889575f73ffffffffffffffffffffffffffffffffffffffff168373ffffffffffffffffffffffffffffffffffffffff160361184a57806040517f7e27328900000000000000000000000000000000000000000000000000000000815260040161184191906121eb565b60405180910390fd5b81816040517f177e802f000000000000000000000000000000000000000000000000000000008152600401611880929190612922565b60405180910390fd5b505050565b5f82036118d0576040517f08c379a00000000000000000000000000000000000000000000000000000000081526004016118c790612993565b60405180910390fd5b5f83146118e2576118e083610bfa565b505b6118ee84848484611c8c565b6118f9848383611c92565b8260065f8481526020019081526020015f208190555060075f8481526020019081526020015f2082908060018154018082558091505060019003905f5260205f20015f9091909190915055600160075f8581526020019081526020015f20805490506119659190612861565b60085f8481526020019081526020015f20819055508373ffffffffffffffffffffffffffffffffffffffff163373ffffffffffffffffffffffffffffffffffffffff167f03f17d66ad3bf18e9412eb06582908831508cdb9b8da9cddb1431f645a5b863285856040516119d99291906129b1565b60405180910390a36119ed84848484611cb5565b50505050565b5f805f90507a184f03e93ff9f4daa797ed6e38ed64bf6a1f0100000000000000008310611a4f577a184f03e93ff9f4daa797ed6e38ed64bf6a1f0100000000000000008381611a4557611a446127cc565b5b0492506040810190505b6d04ee2d6d415b85acef81000000008310611a8c576d04ee2d6d415b85acef81000000008381611a8257611a816127cc565b5b0492506020810190505b662386f26fc100008310611abb57662386f26fc100008381611ab157611ab06127cc565b5b0492506010810190505b6305f5e1008310611ae4576305f5e1008381611ada57611ad96127cc565b5b0492506008810190505b6127108310611b09576127108381611aff57611afe6127cc565b5b0492506004810190505b60648310611b2c5760648381611b2257611b216127cc565b5b0492506002810190505b600a8310611b3b576001810190505b80915050919050565b50565b5f611b535f835f610d31565b90505f73ffffffffffffffffffffffffffffffffffffffff168173ffffffffffffffffffffffffffffffffffffffff1603611bc557816040517f7e273289000000000000000000000000000000000000000000000000000000008152600401611bbc91906121eb565b60405180910390fd5b5050565b50565b5f8073ffffffffffffffffffffffffffffffffffffffff168373ffffffffffffffffffffffffffffffffffffffff1614158015611c8357508273ffffffffffffffffffffffffffffffffffffffff168473ffffffffffffffffffffffffffffffffffffffff161480611c445750611c438484610b03565b5b80611c8257508273ffffffffffffffffffffffffffffffffffffffff16611c6a83610c80565b73ffffffffffffffffffffffffffffffffffffffff16145b5b90509392505050565b50505050565b611c9c8383611cbb565b611cb0611ca7610cb9565b5f858585611109565b505050565b50505050565b5f73ffffffffffffffffffffffffffffffffffffffff168273ffffffffffffffffffffffffffffffffffffffff1603611d2b575f6040517f64a0ae92000000000000000000000000000000000000000000000000000000008152600401611d229190611fb9565b60405180910390fd5b5f611d3783835f610d31565b90505f73ffffffffffffffffffffffffffffffffffffffff168173ffffffffffffffffffffffffffffffffffffffff1614611da9575f6040517f73c6ac6e000000000000000000000000000000000000000000000000000000008152600401611da09190611fb9565b60405180910390fd5b505050565b5f604051905090565b5f80fd5b5f80fd5b5f7fffffffff0000000000000000000000000000000000000000000000000000000082169050919050565b611df381611dbf565b8114611dfd575f80fd5b50565b5f81359050611e0e81611dea565b92915050565b5f60208284031215611e2957611e28611db7565b5b5f611e3684828501611e00565b91505092915050565b5f8115159050919050565b611e5381611e3f565b82525050565b5f602082019050611e6c5f830184611e4a565b92915050565b5f81519050919050565b5f82825260208201905092915050565b5f5b83811015611ea9578082015181840152602081019050611e8e565b5f8484015250505050565b5f601f19601f8301169050919050565b5f611ece82611e72565b611ed88185611e7c565b9350611ee8818560208601611e8c565b611ef181611eb4565b840191505092915050565b5f6020820190508181035f830152611f148184611ec4565b905092915050565b5f819050919050565b611f2e81611f1c565b8114611f38575f80fd5b50565b5f81359050611f4981611f25565b92915050565b5f60208284031215611f6457611f63611db7565b5b5f611f7184828501611f3b565b91505092915050565b5f73ffffffffffffffffffffffffffffffffffffffff82169050919050565b5f611fa382611f7a565b9050919050565b611fb381611f99565b82525050565b5f602082019050611fcc5f830184611faa565b92915050565b611fdb81611f99565b8114611fe5575f80fd5b50565b5f81359050611ff681611fd2565b92915050565b5f806040838503121561201257612011611db7565b5b5f61201f85828601611fe8565b925050602061203085828601611f3b565b9150509250929050565b5f805f6060848603121561205157612050611db7565b5b5f61205e86828701611fe8565b935050602061206f86828701611f3b565b925050604061208086828701611f3b565b9150509250925092565b5f805f606084860312156120a1576120a0611db7565b5b5f6120ae86828701611fe8565b93505060206120bf86828701611fe8565b92505060406120d086828701611f3b565b9150509250925092565b5f81519050919050565b5f82825260208201905092915050565b5f819050602082019050919050565b61210c81611f1c565b82525050565b5f61211d8383612103565b60208301905092915050565b5f602082019050919050565b5f61213f826120da565b61214981856120e4565b9350612154836120f4565b805f5b8381101561218457815161216b8882612112565b975061217683612129565b925050600181019050612157565b5085935050505092915050565b5f6020820190508181035f8301526121a98184612135565b905092915050565b5f602082840312156121c6576121c5611db7565b5b5f6121d384828501611fe8565b91505092915050565b6121e581611f1c565b82525050565b5f6020820190506121fe5f8301846121dc565b92915050565b5f80fd5b7f4e487b71000000000000000000000000000000000000000000000000000000005f52604160045260245ffd5b61223e82611eb4565b810181811067ffffffffffffffff8211171561225d5761225c612208565b5b80604052505050565b5f61226f611dae565b905061227b8282612235565b919050565b5f67ffffffffffffffff82111561229a57612299612208565b5b602082029050602081019050919050565b5f80fd5b5f6122c16122bc84612280565b612266565b905080838252602082019050602084028301858111156122e4576122e36122ab565b5b835b8181101561230d57806122f98882611f3b565b8452602084019350506020810190506122e6565b5050509392505050565b5f82601f83011261232b5761232a612204565b5b813561233b8482602086016122af565b91505092915050565b5f6020828403121561235957612358611db7565b5b5f82013567ffffffffffffffff81111561237657612375611dbb565b5b61238284828501612317565b91505092915050565b61239481611e3f565b811461239e575f80fd5b50565b5f813590506123af8161238b565b92915050565b5f80604083850312156123cb576123ca611db7565b5b5f6123d885828601611fe8565b92505060206123e9858286016123a1565b9150509250929050565b5f80fd5b5f67ffffffffffffffff82111561241157612410612208565b5b61241a82611eb4565b9050602081019050919050565b828183375f83830152505050565b5f612447612442846123f7565b612266565b905082815260208101848484011115612463576124626123f3565b5b61246e848285612427565b509392505050565b5f82601f83011261248a57612489612204565b5b813561249a848260208601612435565b91505092915050565b5f805f80608085870312156124bb576124ba611db7565b5b5f6124c887828801611fe8565b94505060206124d987828801611fe8565b93505060406124ea87828801611f3b565b925050606085013567ffffffffffffffff81111561250b5761250a611dbb565b5b61251787828801612476565b91505092959194509250565b5f806040838503121561253957612538611db7565b5b5f61254685828601611fe8565b925050602061255785828601611fe8565b9150509250929050565b7f4e487b71000000000000000000000000000000000000000000000000000000005f52602260045260245ffd5b5f60028204905060018216806125a557607f821691505b6020821081036125b8576125b7612561565b5b50919050565b7f4e487b71000000000000000000000000000000000000000000000000000000005f52603260045260245ffd5b7f4e487b71000000000000000000000000000000000000000000000000000000005f52601160045260245ffd5b5f61262282611f1c565b91507fffffffffffffffffffffffffffffffffffffffffffffffffffffffffffffffff8203612654576126536125eb565b5b600182019050919050565b5f6060820190506126725f830186611faa565b61267f60208301856121dc565b61268c6040830184611faa565b949350505050565b5f81905092915050565b5f6126a882611e72565b6126b28185612694565b93506126c2818560208601611e8c565b80840191505092915050565b5f6126d9828561269e565b91506126e5828461269e565b91508190509392505050565b5f81519050919050565b5f82825260208201905092915050565b5f612715826126f1565b61271f81856126fb565b935061272f818560208601611e8c565b61273881611eb4565b840191505092915050565b5f6080820190506127565f830187611faa565b6127636020830186611faa565b61277060408301856121dc565b8181036060830152612782818461270b565b905095945050505050565b5f8151905061279b81611dea565b92915050565b5f602082840312156127b6576127b5611db7565b5b5f6127c38482850161278d565b91505092915050565b7f4e487b71000000000000000000000000000000000000000000000000000000005f52601260045260245ffd5b7f4f6e6c79206c65616620746f6b656e732063616e206265206275726e656421005f82015250565b5f61282d601f83611e7c565b9150612838826127f9565b602082019050919050565b5f6020820190508181035f83015261285a81612821565b9050919050565b5f61286b82611f1c565b915061287683611f1c565b925082820390508181111561288e5761288d6125eb565b5b92915050565b7f4e756d626572206f6620746f6b656e73206d75737420626520657175616c20745f8201527f6f20746865206c656e677468206f662074686520646174612100000000000000602082015250565b5f6128ee603983611e7c565b91506128f982612894565b604082019050919050565b5f6020820190508181035f83015261291b816128e2565b9050919050565b5f6040820190506129355f830185611faa565b61294260208301846121dc565b9392505050565b7f4552433631353020546f6b656e49642063616e6e6f74206265207a65726f21005f82015250565b5f61297d601f83611e7c565b915061298882612949565b602082019050919050565b5f6020820190508181035f8301526129aa81612971565b9050919050565b5f6040820190506129c45f8301856121dc565b6129d160208301846121dc565b939250505056fea264697066735822122031dad1a5f2c15089d2a158a85b967f923903105a38c4ff1e169255775a06379f64736f6c63430008140033",
  "immutableReferences": {},
  "source": "// SPDX-License-Identifier: MIT\npragma solidity ^0.8.0;\n\nimport {ERC6150} from \"./ERC6150.sol\";\n\ncontract MyERC6150Token is ERC6150 {\n\n    // Variable to keep track of the next token ID\n    uint256 private idCounter;\n    \n    constructor(string memory name, string memory symbol) ERC6150(name, symbol) {\n        idCounter = 1;\n    }\n\n    /*\n    Public function to safely mint a hierarchical token.\n    Calls _safeMintHierarchical defined in the abstract contract.\n    */\n    function safeMintHierarchical(address to, uint256 parentId) public {\n        uint256 tokenId = idCounter;\n        _safeMintHierarchical(to, parentId, tokenId);\n        idCounter++;\n    }\n\n    /*\n    Public function to safely mint a batch of hierarchical tokens.\n    Calls _safeBatchMintHierarchical defined in the abstract contract.\n    */\n    function safeBatchMintHierarchical(address to, uint256 parentId, uint256 numberOfTokens) public {\n        uint256[] memory tokenIds = new uint256[](numberOfTokens);\n        for (uint256 i = 0; i < numberOfTokens; i++) {\n            tokenIds[i] = idCounter;\n            idCounter++;\n        }\n        _safeBatchMintHierarchical(to, parentId, tokenIds);\n    }\n\n    /*\n    Public function to safely burn a token.\n    Calls _safeBurn defined in the abstract contract.\n    */\n    function safeBurn(uint256 tokenId) public {\n        _safeBurn(tokenId);\n    }\n\n    /*\n    Public function to safely burn a batch of tokens.\n    Calls _safeBatchBurn defined in the abstract contract.\n    */\n    function safeBatchBurn(uint256[] memory tokenIds) public {\n        _safeBatchBurn(tokenIds);\n    }\n\n    /*\n    Override the _beforeSafeMintHierarchical to add additional operations.\n    */\n    function _beforeSafeMintHierarchical(address to, uint256 parentId, uint256 tokenId, bytes memory data) internal virtual override {\n        \n    }\n\n    /*\n    Override the _afterSafeMintHierarchical to add additional operations.\n    */\n    function _afterSafeMintHierarchical(address to, uint256 parentId, uint256 tokenId, bytes memory data) internal virtual override {\n        \n    }\n\n    /*\n    Override the _beforeSafeBurn to add additional operations.\n    */\n    function _beforeSafeBurn(uint256 tokenId) internal virtual override {\n        \n    }\n\n    /*\n    Override the _afterSafeBurn to add additional operations.\n    */\n    function _afterSafeBurn(uint256 tokenId) internal virtual override {\n        \n    }\n}\n",
  "sourcePath": "/Users/volkan/Desktop/lottery_backend/contracts/ERC6150Token.sol",
  "compiler": {
    "name": "solc",
    "version": "0.8.20+commit.a1b79de6.Emscripten.clang"
  },
  "schemaVersion": "3.4.13",
  "updatedAt": "2024-05-26T16:00:30.670Z",
  "devdoc": {
    "errors": {
      "ERC721IncorrectOwner(address,uint256,address)": [
        {
          "details": "Indicates an error related to the ownership over a particular token. Used in transfers.",
          "params": {
            "owner": "Address of the current owner of a token.",
            "sender": "Address whose tokens are being transferred.",
            "tokenId": "Identifier number of a token."
          }
        }
      ],
      "ERC721InsufficientApproval(address,uint256)": [
        {
          "details": "Indicates a failure with the `operator`s approval. Used in transfers.",
          "params": {
            "operator": "Address that may be allowed to operate on tokens without being their owner.",
            "tokenId": "Identifier number of a token."
          }
        }
      ],
      "ERC721InvalidApprover(address)": [
        {
          "details": "Indicates a failure with the `approver` of a token to be approved. Used in approvals.",
          "params": {
            "approver": "Address initiating an approval operation."
          }
        }
      ],
      "ERC721InvalidOperator(address)": [
        {
          "details": "Indicates a failure with the `operator` to be approved. Used in approvals.",
          "params": {
            "operator": "Address that may be allowed to operate on tokens without being their owner."
          }
        }
      ],
      "ERC721InvalidOwner(address)": [
        {
          "details": "Indicates that an address can't be an owner. For example, `address(0)` is a forbidden owner in ERC-20. Used in balance queries.",
          "params": {
            "owner": "Address of the current owner of a token."
          }
        }
      ],
      "ERC721InvalidReceiver(address)": [
        {
          "details": "Indicates a failure with the token `receiver`. Used in transfers.",
          "params": {
            "receiver": "Address to which tokens are being transferred."
          }
        }
      ],
      "ERC721InvalidSender(address)": [
        {
          "details": "Indicates a failure with the token `sender`. Used in transfers.",
          "params": {
            "sender": "Address whose tokens are being transferred."
          }
        }
      ],
      "ERC721NonexistentToken(uint256)": [
        {
          "details": "Indicates a `tokenId` whose `owner` is the zero address.",
          "params": {
            "tokenId": "Identifier number of a token."
          }
        }
      ]
    },
    "events": {
      "Approval(address,address,uint256)": {
        "details": "Emitted when `owner` enables `approved` to manage the `tokenId` token."
      },
      "ApprovalForAll(address,address,bool)": {
        "details": "Emitted when `owner` enables or disables (`approved`) `operator` to manage all of its assets."
      },
      "Minted(address,address,uint256,uint256)": {
        "params": {
          "minter": "The address of minter",
          "parentId": "The id of parent token, if it's zero, it means minted `tokenId` is a root token.",
          "to": "The address received token",
          "tokenId": "The id of minted token, required to be greater than zero"
        }
      },
      "Transfer(address,address,uint256)": {
        "details": "Emitted when `tokenId` token is transferred from `from` to `to`."
      }
    },
    "kind": "dev",
    "methods": {
      "approve(address,uint256)": {
        "details": "See {IERC721-approve}."
      },
      "balanceOf(address)": {
        "details": "See {IERC721-balanceOf}."
      },
      "childrenOf(uint256)": {
        "params": {
          "tokenId": "The parent token"
        },
        "returns": {
          "childrenIds": "The array of children tokens"
        }
      },
      "getApproved(uint256)": {
        "details": "See {IERC721-getApproved}."
      },
      "isApprovedForAll(address,address)": {
        "details": "See {IERC721-isApprovedForAll}."
      },
      "isLeaf(uint256)": {
        "params": {
          "tokenId": "The token want to be checked"
        },
        "returns": {
          "leaf": "Return `true` if it is a leaf token; if not, return `false`"
        }
      },
      "isRoot(uint256)": {
        "params": {
          "tokenId": "The token want to be checked"
        },
        "returns": {
          "root": "Return `true` if it is a root token; if not, return `false`"
        }
      },
      "name()": {
        "details": "See {IERC721Metadata-name}."
      },
      "ownerOf(uint256)": {
        "details": "See {IERC721-ownerOf}."
      },
      "parentOf(uint256)": {
        "params": {
          "tokenId": "The child token"
        },
        "returns": {
          "parentId": "The Parent token found"
        }
      },
      "safeTransferFrom(address,address,uint256)": {
        "details": "See {IERC721-safeTransferFrom}."
      },
      "safeTransferFrom(address,address,uint256,bytes)": {
        "details": "See {IERC721-safeTransferFrom}."
      },
      "setApprovalForAll(address,bool)": {
        "details": "See {IERC721-setApprovalForAll}."
      },
      "supportsInterface(bytes4)": {
        "details": "See {IERC165-supportsInterface}."
      },
      "symbol()": {
        "details": "See {IERC721Metadata-symbol}."
      },
      "tokenURI(uint256)": {
        "details": "See {IERC721Metadata-tokenURI}."
      },
      "transferFrom(address,address,uint256)": {
        "details": "See {IERC721-transferFrom}."
      }
    },
    "version": 1
  },
  "userdoc": {
    "events": {
      "Minted(address,address,uint256,uint256)": {
        "notice": "Emitted when `tokenId` token under `parentId` is minted."
      }
    },
    "kind": "user",
    "methods": {
      "childrenOf(uint256)": {
        "notice": "Get the children tokens of `tokenId` token."
      },
      "isLeaf(uint256)": {
        "notice": "Check the `tokenId` token if it is a leaf token."
      },
      "isRoot(uint256)": {
        "notice": "Check the `tokenId` token if it is a root token."
      },
      "parentOf(uint256)": {
        "notice": "Get the parent token of `tokenId` token."
      }
    },
    "version": 1
  }
}